:020000040800F2
:10000000101C002011040008812F0008832F000815
:10001000872F00088B2F00088F2F0008000000009A
:10002000000000000000000000000000932F000806
:10003000952F000800000000972F0008992F000856
:100040002B0400082B0400082B0400082B040008D4
:100050002B0400082B0400082B0400082B040008C4
:100060002B0400082B0400082B0400082B040008B4
:100070002B0400082B0400082B0400082B040008A4
:100080002B0400082B0400082B0400082B04000894
:100090002B0400082B0400082B0400082B04000884
:1000A0002B0400082B0400082B0400082B04000874
:1000B0002B040008032F00082B0400082B04000861
:1000C0002B0400082B0400082B0400082B04000854
:1000D0002B0400082B0400089B2F0008B92F0008F0
:1000E0002B0400082B0400082B04000800F002F881
:1000F00000F090F80AA090E8000C82448344AAF132
:100100000107DA4501D100F085F8AFF2090EBAE82F
:100110000F0013F0010F18BFFB1A43F0010318473B
:100120001877000038770000103A24BF78C878C1EB
:10013000FAD8520724BF30C830C144BF04680C60ED
:10014000704700000023002400250026103A28BF35
:1001500078C1FBD8520728BF30C148BF0B60704739
:100160006E2904F04183702904F0CA86662906F0DE
:100170005F81652906F05C81672906F05981612954
:10018000AFF3008003681B0A28BF41F08001692992
:1001900004F00681642904F00381752904F00081CC
:1001A0006F2904F05586782904F09686E92904F031
:1001B000ED85E42904F0EA85F52904F0E785EF29C7
:1001C00004F05286F82904F095860368DB0928BFFD
:1001D00041F08001632904F05C85732904F0618596
:1001E000E32904F09387F32904F0988700207047EF
:1001F0001FB504F0F7FE04000020002105F0C4FC48
:10020000401C60600020002105F0A8FCE0601FBDDC
:1002100010B510BD05F093F81146FFF7E9FF02F0A5
:1002200067FC05F0BFF803B4FFF7F2FF03BC02F070
:1002300035F800000CB50020019000906B48006874
:1002400040F480306949086000BF6848006800F4E5
:10025000003000900198401C0190009818B9019856
:10026000B0F5A06FF1D16148006810F4003F02D0F2
:100270000120009001E0002000900098012842D168
:100280005B48006840F01000594908600846006863
:1002900020F0030008600846006840F00200086093
:1002A00052484068514948600846406848600846DE
:1002B000406840F4806048600846406820F47C1044
:1002C00048600846406840F4E81048600846006806
:1002D00040F08070086000BF4448006810F0007F64
:1002E000FAD04248406820F0030040494860084680
:1002F000406840F00200486000BF3C48406800F0A1
:100300000C000828F9D10CBD10B5FFF793FF10BD04
:1003100010B53648006840F00100344908600846CE
:10032000406834490840314948600846006832490D
:1003300008402E4908600846006820F480200860C4
:100340000846406820F4FE0048604FF41F008860B3
:10035000FFF7DAFF4FF000602849086010BD10B5C4
:10036000002100200022214B5B6803F00C0121B129
:10037000042906D0082928D107E0214B214C23600D
:1003800027E01F4B1F4C236023E0184B5B6803F4EE
:100390007010164B5B6803F48032022303EB90402D
:1003A00022B9194B4343174C23600DE00F4B5B6898
:1003B00013F4003F04D0144B4343124C236003E07A
:1003C0000F4B43430F4C236003E00D4B0D4C236058
:1003D00000BF00BF054B5B68C3F303130B4CE15C2C
:1003E000084B1B68CB40074C236010BD0010024037
:1003F000002002400000FFF8FFFFF6FE08ED00E0DD
:1004000000127A000000002000093D0004000020D6
:100410000948804709480047FEE7FEE7FEE7FEE798
:10042000FEE7FEE7FEE7FEE7FEE7FEE704480549D4
:10043000054A064B7047000011030008ED00000854
:1004400010160020101C002010180020101800208A
:1004500031490143314A1160704770B500210023D2
:100460000F22C4780CB32D4C246804F4E064C4F566
:10047000E064210AC1F10403CA40447804FA03F19C
:100480008478144021430901254C0678A15504784D
:1004900004F01F050124AC4005786D114FF0E026F3
:1004A00006EB8505C5F8004109E0047804F01F0556
:1004B0000124AC401B4D0678761145F8264070BDEE
:1004C000194A0A400243154B1B1F1A60704739B185
:1004D000124A121D12680243104B1B1D1A6006E0DF
:1004E0000E4A121D126882430C4B1B1D1A60704786
:1004F000042808D14FF0E021096941F004014FF0D0
:10050000E022116107E04FF0E021096921F00401C8
:100510004FF0E022116170470000FA050CED00E099
:1005200000E400E080E100E080FFFF1F10B504461A
:10053000CA48844208D10121042000F027FB002191
:10054000042000F023FB46E0C548844208D1012185
:10055000082000F01BFB0021082000F017FB3AE008
:10056000C048844208D10121102000F00FFB002177
:10057000102000F00BFB2EE0BB48844208D1012183
:10058000202000F003FB0021202000F0FFFA22E0F1
:10059000B648844208D10121402000F0F7FA00213A
:1005A000402000F0F3FA16E0B148844208D101215E
:1005B000802000F0EBFA0021802000F0E7FA0AE04A
:1005C000AC48844207D10121801500F0DFFA0021F8
:1005D000A01500F0DBFA10BD10B50121084600F0AF
:1005E000D5FA0021012000F0D1FA10BD2DE9F0412B
:1005F000024600250026002000230024002791F851
:1006000003C00CF00F0591F803C01CF0100F03D0CD
:1006100091F802C04CEA050591F800C0BCF1000F4A
:1006200031D0146800202BE04FF0010C0CFA00F3DD
:10063000B1F800C00CEA03069E4220D183004FF0BF
:100640000F0C0CFA03F7BC4305FA03FC4CEA040454
:1006500091F803C0BCF1280F06D14FF0010C0CFA41
:1006600000FCC2F814C00AE091F803C0BCF1480FC6
:1006700005D14FF0010C0CFA00FCC2F810C0401C70
:100680000828D1D31460B1F800C0BCF1FF0F34DDED
:10069000546800202EE000F1080C4FF0010808FA21
:1006A0000CF3B1F800C00CEA03069E4221D183008E
:1006B0004FF00F0C0CFA03F7BC4305FA03FC4CEAAD
:1006C000040491F803C0BCF1280F05D100F1080C17
:1006D00008FA0CF8C2F8148091F803C0BCF1480F76
:1006E00007D100F1080C4FF0010808FA0CF8C2F825
:1006F0001080401C0828CED35460BDE8F0814FF62E
:10070000FF710180022181700421C170704702468F
:10071000002093680B4201D0012000E000207047C8
:100720000146886880B2704702460020D3680B42B9
:1007300001D0012000E0002070470146C86880B267
:10074000704701617047416170470AB1016100E083
:1007500041617047C16070474FF480320A43826143
:100760008161826182698269704702460020424B42
:1007700018684FF68073184040EA021008433E4B59
:10078000186070473D49C8617047F0B50A460023BC
:1007900000240021002500F00046B6F1004F02D1F0
:1007A000354EF16901E0344E7168C0F3034583B200
:1007B00000F44016B6F5401F08D121F070612E4EAE
:1007C000766826F070662C4F7E6012E000F480168A
:1007D000B6F5801F06D1032606FA05F4A14341F0C1
:1007E000706106E0460D360103FA06F6B14341F0AA
:1007F000706122B1460D360103FA06F6314300F06E
:100800000046B6F1004F02D11B4EF16101E01A4ED5
:100810007160F0BD30B500228B071C0F0F2303FA67
:1008200004F2154B08338C1053F824309343124CC8
:1008300008348D1044F8253023468C1053F82430AA
:100840008C07240F00FA04F423430B4C08348D105A
:1008500044F8253030BD0A4908607047000801405F
:10086000000C01400010014000140140001801403C
:10087000001C014000200140000001400000204217
:10088000DC002042DD48006840F00100DB490860E0
:1008900008464068DA490840D84948600846006878
:1008A000D8490840D54908600846006820F48020EF
:1008B00008600846406820F4FE0048604FF41F00BE
:1008C00088607047CD49096821F48031CB4A1160B6
:1008D0001146096821F480211160B0F5803F03D0F2
:1008E000B0F5802F0ED106E0C449096841F480318B
:1008F000C24A116007E0C149096841F4A021BF4A1A
:10090000116000E000BF00BF704710B50146002233
:10091000002300204A11012A02D1B84C236806E0C6
:10092000022A02D1B54C236A01E0B44C636A01F09B
:100930001F02012494401C4201D0012000E000204D
:1009400010BD38B5002000900024002500BF3120E4
:10095000FFF7DBFF05460098401C00900098B0F5BB
:10096000A06F01D0002DF2D03120FFF7CEFF08B1EB
:10097000012400E00024204638BD014600209F4AA3
:10098000106820F0F80040EAC100106070479E49EE
:100990000860704702460020984B586820F47C108D
:1009A00042EA01031843954B586070479649086620
:1009B000704701460020914A506820F00300084328
:1009C000506070478D48406800F00C007047014649
:1009D00000208A4A506820F0F000084350607047B9
:1009E00001460020854A506820F4E06008435060CA
:1009F000704701460020814A506820F4605040EA68
:100A0000C1005060704729B17C4A527A02437B4B47
:100A10005A7204E0794A527A8243784B5A7270478C
:100A20007A490860704701460020744A506820F4F3
:100A300040400843506070470021754A11706F4A6A
:100A400082F82010012802D0042808D103E00121F7
:100A50006F4A117004E005216D4A117000E000BF7B
:100A600000BF70476B49086070476449096A0143D9
:100A7000624A11627047674944390860704730B56F
:100A800000210022002400235C4D6D6805F00C015C
:100A900021B1042905D0082923D105E05E4D056068
:100AA00022E05D4D05601FE0544D6D6805F4701245
:100AB000524D6D6805F48034022505EB92421CB955
:100AC000564D554305600BE04C4D6D6815F4003FE5
:100AD00003D0524D5543056002E04F4D554305602C
:100AE00002E04D4D056000BF00BF444D6D6805F04C
:100AF000F00109094A4D6B5C0568DD4045603F4DDA
:100B00006D6805F4E061090A454D6B5C4568DD40A0
:100B100085603A4D6D6805F46051C90A404D6B5CC3
:100B20004568DD40C560354D6D6805F44041890B71
:100B30003C4D6B5CC568B5FBF3F5056130BD29B173
:100B40002E4A526902432D4B5A6104E02B4A5269E6
:100B500082432A4B5A61704729B1284A926902435D
:100B6000264B9A6104E0254A92698243234B9A619D
:100B7000704729B1214AD2690243204BDA6104E06F
:100B80001E4AD26982431D4BDA61704729B11B4A64
:100B9000D2680243194BDA6004E0184AD2688243F3
:100BA000164BDA60704729B1144A12690243134B9D
:100BB0001A6104E0114A12698243104B1A617047AE
:100BC00014494039086070470F49C86470470B49A1
:100BD000C87170470948406A40F080700749486210
:100BE000704701460020054A92680A4201D0012060
:100BF00000E00020704701498872704700100240F1
:100C00000000FFF8FFFFF6FE00004242D80042421B
:100C1000201002408004424200127A0000093D0088
:100C2000140000202400002010B50446FB48844234
:100C300009D101218803FFF7A9FF00214FF480406B
:100C4000FFF7A4FF32E0F648844209D101214804AD
:100C5000FFF7A9FF00214FF40030FFF7A4FF25E0C4
:100C6000F048844209D101218804FFF79CFF00214C
:100C70004FF48020FFF797FF18E0EB48844209D13A
:100C80000121C804FFF78FFF00214FF40020FFF778
:100C90008AFF0BE0E548844208D101210805FFF7EF
:100CA00082FF00214FF48010FFF77DFF10BD2DE97A
:100CB000F04786B005460E460024A24600BFA14676
:100CC0000027B08900B100BF2F462C8A4CF6FF7078
:100CD0000440F08804432C82AC894EF6F3100440A3
:100CE000B08831890843718908430443AC81AC8AD8
:100CF0004FF6FF400440B0890443AC8201A8FFF7DF
:100D0000BEFEC648874202D1DDF810A001E0DDF842
:100D10000CA0A88910F4004F08D00AEBCA0000EB21
:100D20000A1031684900B0FBF1F807E00AEBCA008D
:100D300000EB0A1031688900B0FBF1F86420B8FBC1
:100D4000F0F004012009642101FB1089A88910F446
:100D5000004F08D0322000EBC900B0FBF1F000F0EA
:100D60000700044308E0322000EB09106421B0FBC7
:100D7000F1F000F00F0004432C8106B0BDE8F087CD
:100D80004FF41651016000218180C18001810C2146
:100D9000418100218181704710B502460020108AF0
:100DA0004FF2FF0318400B884C8823438C88234361
:100DB000CC8823431843108210BD0021018041805C
:100DC0008180C180704721B1828942F400528281C2
:100DD00004E082894DF6FF731A4082817047F0B5B6
:100DE00003460024002600250020A1F510676A3F75
:100DF00000D100BF1846C1F3421401F01F060127BD
:100E000007FA06F5012C01D10C3004E0022C01D1C7
:100E1000103000E014301AB107682F43076002E079
:100E20000768AF430760F0BD1AB1838A0B43838222
:100E300002E0838A8B4383827047028A4FF6F07305
:100E40001A400282028A0A430282704782894FF264
:100E5000FF731A40828182890A438281704721B1DF
:100E6000828942F00202828104E082894FF6FD739A
:100E70001A4082817047028A4FF6DF731A4002825D
:100E8000028A0A430282704721B1028A42F48042F8
:100E9000028204E0028A4BF6FF731A400282704716
:100EA000C1F308028280704701468888C0F30800B9
:100EB0007047818941F0010181817047028BD2B274
:100EC0000283028B42EA012202837047028B02F402
:100ED0007F420283028B0A430283704721B1828AD8
:100EE00042F02002828204E0828A4FF6DF731A40C9
:100EF0008282704721B1828A42F01002828204E02D
:100F0000828A4FF6EF731A408282704721B1828A3B
:100F100042F00802828204E0828A4FF6F7731A4098
:100F20008282704721B1828942F40042828103E0CB
:100F30008289C2F30E028281704721B1828A42F413
:100F40000062828204E0828A4FF2FF731A4082823A
:100F50007047828A4FF6FB731A408282828A0A4364
:100F60008282704721B1828A42F00202828204E0CA
:100F7000828A4FF6FD731A40828270470246002033
:100F8000B1F5007F00D100BF13880B4201D00120D2
:100F900000E00020704701F40072B2F5007F00D13C
:100FA00000BFCA430280704770B502460024002388
:100FB00000250020A1F510666A3E00D100BFC1F3F4
:100FC000421501F01F03012606FA03F3012D02D199
:100FD0009689334006E0022D02D1168A334001E0A3
:100FE000968A33400C12012606FA04F4168834401F
:100FF00013B10CB1012000E0002070BD10B500223B
:101000000023A1F510646A3C00D100BF0A1201243C
:101010009440A3B2DC43048010BD000000380140BE
:101020000044004000480040004C00400050004098
:1010300010B50446FE48844208D10121C014FFF7D0
:10104000A5FD0021E014FFF7A1FDC4E0B4F1804F3D
:1010500008D101210846FFF7A6FD00210120FFF776
:10106000A2FDB8E0F348844208D101210220FFF735
:101070009AFD00210220FFF796FDACE0EE48844285
:1010800008D101210420FFF78EFD00210420FFF785
:101090008AFDA0E0E948844208D101210820FFF739
:1010A00082FD00210820FFF77EFD94E0E4488442A1
:1010B00008D101211020FFF776FD00211020FFF755
:1010C00072FD88E0DF48844208D101212020FFF72B
:1010D0006AFD00212020FFF766FD7CE0DA488442AB
:1010E00008D101214014FFF751FD00216014FFF7E2
:1010F0004DFD70E0D548844209D10121C804FFF7B5
:1011000045FD00214FF40020FFF740FD63E0D0488B
:10111000844209D101210805FFF738FD00214FF471
:101120008010FFF733FD56E0CA48844209D10121FF
:101130004805FFF72BFD00214FF40010FFF726FDB7
:1011400049E0C548844208D101214020FFF72BFD2A
:1011500000214020FFF727FD3DE0C048844208D130
:1011600001218020FFF71FFD00218020FFF71BFDDC
:1011700031E0BB48844208D101218015FFF713FDFF
:101180000021A015FFF70FFD25E0B648844209D1E4
:1011900001210804FFF7FAFC00214FF48030FFF72B
:1011A000F5FC18E0B048844209D101214804FFF75A
:1011B000EDFC00214FF40030FFF7E8FC0BE0AB48FA
:1011C000844208D101218804FFF7E0FC00214FF49C
:1011D0008020FFF7DBFC10BD00220288944B984270
:1011E0000ED0994B98420BD0B0F1804F08D0914B64
:1011F000984205D0904B984202D0904B984204D12F
:101200004FF68F731A404B881A438D4B984207D084
:101210008C4B984204D04FF6FF431A40CB881A43B8
:1012200002808B8883850B880385814B98420BD085
:10123000854B984208D08B4B984205D08A4B9842F8
:1012400002D08A4B984201D10B7A03860123838214
:10125000704770B5002400220023058C4FF6FE76FF
:1012600035400584028C8388048B4FF68F752C40A3
:10127000B51E2C400D882C43751E2A400D892A432B
:101280004D882A436A4DA8420BD06F4DA84208D022
:10129000744DA84205D0744DA84202D0734DA842A7
:1012A00013D14FF6F7752A404D892A434FF6FB7547
:1012B0002A408D882A434FF6FF652B404FF6FF5595
:1012C0002B408D892B43CD892B4383800483CD888C
:1012D0008586028470BD70B5002400220023058C31
:1012E0004FF6EF7635400584028C8388048B48F6F0
:1012F000FF752C404FF6FF452C400D884FF6FF76CA
:1013000006EA05252C434FF6DF752A400D8906EACB
:1013100005152A434D8806EA05152A43444DA8427F
:1013200002D0494DA8421DD14FF67F752A404D8904
:101330004FF6FF7606EA05152A434FF6BF752A4099
:101340008D8806EA05152A434FF6FF352B404FF2EC
:10135000FF752B408D8906EA85052B43CD8906EA6A
:1013600085052B4383800483CD880587028470BD67
:1013700070B5002400220023058C4FF6FF6635402F
:101380000584028C8388848B4FF68F752C404FF632
:10139000FC752C400D882C434FF6FF552A400D89D3
:1013A0004FF6FF7606EA05252A434D8806EA05250D
:1013B0002A431F4DA84202D0234DA8421DD14FF20F
:1013C000FF752A404D894FF6FF7606EA05252A4328
:1013D0004FF6FF352A408D8806EA05252A434EF64A
:1013E000FF752B404DF6FF752B408D8906EA0515DC
:1013F0002B43CD8906EA05152B4383808483CD8852
:101400008587028470BD70B5002200230024058CFE
:101410004EF6FF7635400584038C8488828B48F62F
:10142000FF752A404FF6FF452A400D8820E0000056
:10143000002C01400004004000080040000C004067
:10144000001000400014004000340140004C0140F6
:10145000005001400054014000180040001C0040B2
:10146000002000400040014000440140004801408D
:101470004FF6FF7606EA05252A434DF6FF752B4009
:101480000D8906EA05352B434D8806EA05352B43C1
:10149000FA4DA84202D0FA4DA84208D14BF6FF758A
:1014A0002C408D894FF6FF7606EA85152C43848003
:1014B0008283CD88A0F84050038470BD828B4FF2A8
:1014C000FF331A408283828B4FF6FF7303EA0123B6
:1014D0001A4382837047F0B50C461546002200215E
:1014E0000026078C4EF6FF7C07EA0C070784828BE8
:1014F000018C4FF6FF7707EA043640F6FF473A4083
:101500004FF6FF7707EA05273A434FF6FF7707EADA
:1015100003373A43D94FB8420ED0D94FB8420BD017
:10152000B0F1804F08D0D74FB84205D0D64FB8425F
:1015300002D0D64FB84206D14DF6FF77394046F477
:101540008057394305E047F6FF57394044F4805748
:10155000394382830184F0BD828B4FF6F3731A40C6
:101560008283828B0A4382837047F0B50C4615460E
:10157000002200210026078C4FF6FF6C07EA0C07BB
:101580000784828B018C4FF6FF7707EA04264FF61B
:101590000C773A404FF6FF7707EA03172F433A4399
:1015A000B64FB8420ED0B64FB8420BD0B0F1804F14
:1015B00008D0B44FB84205D0B34FB84202D0B34FB1
:1015C000B84206D14FF6FF57394046F48077394389
:1015D00005E04FF2FF57394044F480773943828366
:1015E0000184F0BD028B4FF2FF331A400283028B5D
:1015F0004FF6FF7303EA01231A4302837047F0B5E5
:101600000C461546002200210026078C4FF6EF7C81
:1016100007EA0C070784028B018C4FF6FF7707EA75
:10162000041640F6FF473A404FF6FF7707EA0337C4
:101630003A434FF6FF7707EA05273A438F4FB84200
:101640000ED08F4FB8420BD0B0F1804F08D08D4FE5
:10165000B84205D08C4FB84202D08C4FB84206D168
:101660004FF6DF77394046F01007394305E04FF673
:101670005F77394044F01007394302830184F0BD9D
:10168000028B4FF6F3731A400283028B0A430283E4
:101690007047F0B50C46154600220021068C4FF627
:1016A000FE773E400684028B018C4FF60C7632406A
:1016B0007E1C06EA03162E433243704EB0420ED013
:1016C0006F4EB0420BD0B0F1804F08D06D4EB0429B
:1016D00005D06D4EB04202D06C4EB04206D14FF6EE
:1016E000FD76314044F00106314305E04FF6F576D2
:1016F000314044F00106314302830184F0BD70B5EE
:1017000005460C465D4885420ED05D4885420BD0AB
:10171000B5F1804F08D05B48854205D05A488542D4
:1017200002D05A48854200D100E000BF208850B95D
:101730002389A28861882846FFF7ABFFE188284605
:10174000FFF79EFF25E0208804280AD12389A2887C
:1017500061882846FFF753FFE1882846FFF742FFDC
:1017600017E0208808280AD12389A28861882846A2
:10177000FFF7FBFEE1882846FFF7EEFE09E023892C
:10178000A28861882846FFF7A6FEE1882846FFF771
:1017900095FE70BD2DE9F04105460C460026012757
:1017A000608808B9022600E00026A088012801D13F
:1017B000022700E001272088A0B92389A288618838
:1017C0002846FFF766FFE1882846FFF759FF23897F
:1017D0003A4631462846FFF712FFE1882846FFF7D0
:1017E00001FF13E02389A28861882846FFF707FFDD
:1017F000E1882846FFF7F6FE23893A463146284617
:10180000FFF747FFE1882846FFF73AFFBDE8F08180
:101810000A884B881A438B881A43CB881A430B8952
:101820001A434B891A438B891A43A0F84420704706
:101830004FF6FF71818000210180C18041800172DB
:1018400070470021018041808180C18001814181F8
:101850008181C18170470021018041800121818007
:101860000021C18001817047002101804180818079
:10187000C18001814181818170470000002C0140BD
:10188000003401400004004000080040000C00400B
:1018900021B1028842F00102028004E002884FF682
:1018A000FE731A400280704731B1B0F8442042F410
:1018B0000042A0F8442005E0B0F84420C2F30E0234
:1018C000A0F8442070471AB183890B43838102E05A
:1018D00083898B43838170478182704741EA020389
:1018E000A0F8483070471AB183890B43838102E026
:1018F00083898B438381704701894FF6F8721140C9
:10190000018170470A46002101894FF68F73194003
:1019100011430181704730B504460D4629462046E3
:10192000FFF7F0FF208940F00700208130BD2DE94E
:10193000F04104460D4616461F46602D06D13B4633
:10194000012231462046FFF75AFE05E03B460122C0
:1019500031462046FFF79DFE29462046FFF7D2FF7D
:10196000208940F007002081BDE8F08130B50C46A9
:1019700000210189C9B24FF6FF7505EA0325154319
:1019800025432943018130BD2DE9F04105460E462E
:1019900017469846002443463A4631462846FFF704
:1019A000E5FF2C894FF6F870044044F007044FF629
:1019B0008F70044044F070042C81BDE8F081F0B5D4
:1019C00004460D4616461F463B46324629462046EB
:1019D000FFF7CCFF208940F480402081F0BD0185D5
:1019E000828270470A46002101884FF68F731940A2
:1019F000114301807047F0B50C4615461E46002184
:101A0000002200230189028B038C4FF6F8773940BE
:101A100021434FF6FC473A4040F201173A434FF654
:101A2000DD773B404FF6FF7707EA06172F433B432E
:101A3000018102830384F0BD0A460021018B4FF629
:101A40008F7319401143018370470A460021018BAF
:101A500048F6FF7319404FF6FF7303EA0223194358
:101A6000018370470A460021818B4FF68F7319401E
:101A70001143818370470A460021818B48F6FF732A
:101A800019404FF6FF7303EA02231943818370471D
:101A900021B1028842F08002028004E002884FF601
:101AA0007F731A400280704721B1828842F004029D
:101AB000828004E082884FF6FB731A408280704770
:101AC00021B1828842F00802828004E082884FF6C9
:101AD000F7731A408280704721B1828842F0010278
:101AE000828004E082884FF6FE731A40828070473D
:101AF0000A460021018B4FF6F77319401143018309
:101B000070470A460021018B4FF2FF7319404FF6D0
:101B1000FF7303EA02231943018370470A46002139
:101B2000818B4FF6F77319401143818370470A4642
:101B30000021818B4FF2FF7319404FF6FF7303EAC8
:101B400002231943818370470A460021018B4FF617
:101B5000FB7319401143018370470A460021018B32
:101B60004FF6FF3319404FF6FF7303EA0223194380
:101B7000018370470A460021818B4FF6FB731940A1
:101B80001143818370470A460021818B4FF6FF3352
:101B900019404FF6FF7303EA02231943818370470C
:101BA0000A460021018B4FF67F73194011430183D0
:101BB00070470A460021018BC1F30E014FF6FF73F7
:101BC00003EA02231943018370470A460021818BEF
:101BD0004FF67F7319401143818370470A460021F5
:101BE000818BC1F30E014FF6FF7303EA0223194301
:101BF000818370470A460021018C4FF6FD7319401E
:101C00001143018470470A460021018C4FF6F77397
:101C100019401143018470470A460021018C4FF698
:101C2000DF7319404FF6FF7303EA0213194301846F
:101C300070470A460021018C4FF67F7319404FF61A
:101C4000FF7303EA02131943018470470A46002117
:101C5000018C4FF6FF5319404FF6FF7303EA02233E
:101C60001943018470470A460021018C4FF2FF732B
:101C700019404FF6FF7303EA0223194301847047AA
:101C80000A460021018C4DF6FF7319404FF6FF7391
:101C900003EA023319430184704730B5002301245D
:101CA0008C40A3B2048C9C430484048C02FA01F59A
:101CB000ADB22C43048430BD30B5002304248C40E5
:101CC000A3B2048C9C430484048C02FA01F5ADB2E7
:101CD0002C43048430BD70B5034600200024184610
:101CE000183001258D40ACB21D8CA5431D8409B16F
:101CF000082909D100EB6100056825F07005056031
:101D00000568154305600EE00D1FC5F34E05284418
:101D1000056825F4E045056005684FF6FF7606EA9C
:101D200002263543056070BD21B1028842F00202EF
:101D3000028004E002884FF6FD731A40028070476B
:101D400021B1028842F00402028004E002884FF6CA
:101D5000FB731A400280704721B1828842F08002F2
:101D6000828004E082884FF67F731A408280704739
:101D700002884FF6F7731A40028002880A430280F5
:101D8000704782884FF68F731A40828082880A4398
:101D90008280704702894FF6F8731A4002810289E7
:101DA0000A430281704702894FF67F731A4002810D
:101DB00002890A4302817047818470478185704798
:101DC000818670470187704781877047A0F840106F
:101DD000704702884FF6FF431A40028002880A4388
:101DE000028070470146888E70470146088F704711
:101DF0000146888F70470146B1F8400070470146A0
:101E0000888C70470146088D704702460020138A6F
:101E10000B4201D0012000E000207047CA4302823B
:101E2000704730B50246002000230024158A05EAD9
:101E30000103958905EA010413B10CB1012000E00A
:101E4000002030BDCA4302827047000010B504462E
:101E5000FA48844208D101214015FEF797FE00217F
:101E60006015FEF793FE17E0F548844208D1012182
:101E70000015FEF78BFE00212015FEF787FE0BE014
:101E8000F048844208D10121C803FEF77FFE0021FB
:101E90004FF40040FEF77AFE10BD30B50246002038
:101EA00000235068E84C20400D790C6844EA052472
:101EB000204350609068E54C2040D1E902542C4307
:101EC0004D7944EA450420439060D06A20F47000C4
:101ED0000C7C641EE4B2234340EA0350D06230BD60
:101EE00000210160017141718160C16001210174B3
:101EF000704721B1826842F00102826003E082688B
:101F000022F001028260704721B1826842F480723F
:101F1000826003E0826822F480728260704710B5AC
:101F20000023CBB21AB144681C43446002E0446809
:101F30009C43446010BD816841F008018160704796
:101F4000014600208A6812F0080F01D0012000E04D
:101F500000207047816841F00401816070470146AC
:101F600000208A6812F0040F01D0012000E0002058
:101F7000704721B1826842F4A002826003E0826867
:101F800022F4A00282607047014600208A6812F4A1
:101F9000800F01D0012000E00020704710B50A46F4
:101FA00000210023416821F46041531E41EA43317E
:101FB000416010BD21B1426842F40062426003E01A
:101FC000426822F4006242607047F0B504460D4654
:101FD00000200021092D11DDE068A5F10A0606EBBD
:101FE0004607072606FA07F18843A5F10A0606EB1D
:101FF000460603FA06F10843E0600CE0206905EBB1
:102000004507072606FA07F1884305EB450603FA5C
:1020100006F108432061072A0FDA606B561E06EBB3
:1020200086071F2606FA07F18843561E06EB86062A
:1020300005FA06F10843606322E00D2A0FDA206BEF
:10204000D61F06EB86071F2606FA07F18843D61F20
:1020500006EB860605FA06F10843206310E0E06A05
:10206000A2F10D0606EB86071F2606FA07F1884344
:10207000A2F10D0606EB860605FA06F10843E062BA
:10208000F0BD21B1826842F48012826003E0826870
:1020900022F48012826070470146C86C80B270479B
:1020A00066484C300068704721B1426842F4806253
:1020B000426003E0426822F480624260704721B1CE
:1020C000426842F48052426003E0426822F4805247
:1020D000426070470A460021816821F4E0411143C3
:1020E0008160704721B1826842F40042826003E05F
:1020F000826822F400428260704721B1826842F413
:102100000212826003E0826822F402128260704749
:10211000014600208A6812F4001F01D0012000E06F
:1021200000207047F0B50446154600200022002626
:10213000092911DDE068A1F10A0707EB470C072721
:1021400007FA0CF29043A1F10A0707EB470703FADD
:1021500007F21043E0600CE0206901EB410C072717
:1021600007FA0CF2904301EB410703FA07F2104320
:102170002061A06BC0F30156EF1C06F1010CA7EB28
:102180000C0707EB870C1F2707FA0CF29043EF1C94
:1021900006F1010CA7EB0C0707EB870701FA07F222
:1021A0001043A063F0BD10B50A4600210023816BE7
:1021B00021F44011531E41EA0351816310BD08B55B
:1021C000002300930090009B0B440093009B1A6037
:1021D00008BD08B5024600200090009201F12800D9
:1021E000009B184400900098006880B208BD0A4621
:1021F00000214168164B194011434160704741620C
:10220000826270470A460021416821F01F01114394
:102210004160704740B109490831096841F4000143
:10222000064A0832116007E004490831096821F4C0
:102230000001024A0832116070470000002401408A
:1022400000280140003C0140FFFEF0FFFDF7F1FFD8
:10225000FFFD3FFF0246002013680B4201D0012022
:1022600000E000207047CA430260704770B5024624
:102270000020002300240B125568CEB205EA0604A4
:1022800015681D4202D00CB1012000E0002070BD95
:1022900000220A12D343036070470000014600BFCA
:1022A000704770B504460D4600BF40211948FEF73F
:1022B00065FE0028F9D0E1B21648FEF7F1FD204690
:1022C00070BD0FB410B5B4B0002437A80090C92178
:1022D00001A8009B369A01F0EBFF0EE000BF402101
:1022E0000D48FEF74BFE0028F9D02046621CD4B200
:1022F00001AA115C0848FEF7D3FDC82C03DA01A837
:10230000005D0028EAD10020009034B010BC5DF8D8
:1023100014FB0000004400400048004010B5044693
:102320006FF00400FEF7E4F82B48B4FBF0F02B4903
:1023300008700846007800EB4001C1EBC0104FF672
:10234000FF7101EAC0002649088010BD0146234AFA
:1023500012784A434FF0E0235A6100229A611A46EC
:10236000126942F001021A6100BF4FF0E0221069C9
:1023700010F0010F02D010F4803FF6D04FF0E022B1
:10238000126922F001024FF0E0231A6100229A61E3
:1023900070470146124A12884A434FF0E0235A61BF
:1023A00000229A611A46126942F001021A6100BFC6
:1023B0004FF0E022106910F0010F02D010F4803FBE
:1023C000F6D04FF0E022126922F001024FF0E02334
:1023D0001A6100229A61704700127A002C000020D6
:1023E0002E00002010B500F06BFF00F09DFF48208C
:1023F00001F022FA042001F07EFA01F05FFB01F007
:10240000BEFE10BD00B585B001214802FEF7A4FB59
:102410004FF48040FEF707FBFE48FFF717FD002052
:1024200000908DF804008DF805004FF460200290B4
:102430000020039001208DF810006946F548FFF751
:102440002CFD0121F348FFF754FDF248FFF773FD1F
:1024500000BFF048FFF774FD0028FAD1ED48FFF700
:1024600079FD00BFEB48FFF77AFD0028FAD105B0EF
:1024700000BD08B54FF4A060FDF7EAFF26208DF8F7
:10248000000002208DF8010000208DF802000120DC
:102490008DF803006846FDF7E0FF27208DF8000067
:1024A00002208DF8010000208DF8020001208DF837
:1024B00003006846FDF7D1FF08BD08B501211D20C6
:1024C000FEF74AFB0121D448FEF75FF90121D3480A
:1024D000FEF75BF90420ADF8000018208DF803002A
:1024E00003208DF802006946CD48FEF77FF80820EA
:1024F000ADF8000003208DF8020004208DF80300E1
:102500006946C748FEF772F84FF48060ADF80000E6
:1025100018208DF8030003208DF802006946C14899
:10252000FEF764F84FF40060ADF8000003208DF86A
:10253000020004208DF803006946BA48FEF756F8F9
:102540002020ADF8000010208DF8030001208DF848
:1025500002006946B248FEF749F84FF44870ADF8FA
:10256000000010208DF8030001208DF8020069465C
:10257000AC48FEF73BF800222021A948FEF7E5F819
:1025800000222021A748FEF7E0F800224FF48071D6
:10259000A448FEF7DAF800224FF40071A148FEF7D4
:1025A000D4F84020ADF8000010208DF80300012081
:1025B0008DF8020069469A48FEF718F84FF48260D9
:1025C000ADF8000010208DF8030001208DF8020006
:1025D00069469548FEF70AF88020ADF80000102003
:1025E0008DF8030001208DF8020069468C48FDF744
:1025F000FDFF0120ADF8000000208DF803006946C2
:102600008748FDF7F3FF1220ADF8000048208DF851
:10261000030001208DF8020069468148FDF7E6FFBE
:102620000120ADF8000048208DF8030001208DF84E
:10263000020069467C48FDF7D9FF0320ADF8000091
:1026400048208DF8030001208DF802006946754886
:10265000FDF7CCFF4FF44070ADF8000048208DF836
:10266000030001208DF8020069466D48FDF7BEFFAA
:1026700008BD1FB5044601218804FEF77AFA0094CC
:102680000020ADF80400ADF80600ADF80800ADF884
:102690000C000C20ADF80A0069466448FEF707FB01
:1026A000012240F225516148FEF799FB01215F4864
:1026B000FEF789FB1FBD1FB5044601214804FEF744
:1026C00058FA00940020ADF80400ADF80600ADF80B
:1026D0000800ADF80C000C20ADF80A00694654481B
:1026E000FEF7E5FA012240F225515148FEF777FB4B
:1026F00001214F48FEF767FB1FBD00B585B0684656
:10270000FEF7BDF90198FFF709FE05B000BD1CB545
:102710000020019000904748006840F001004549C2
:1027200008600846406844490840424948600846F5
:102730000068424908403F4908600846006820F4A4
:10274000802008600846406820F4FE0048604FF48E
:102750001F0088600846006840F48030086000BFB1
:102760003448006800F4003000900198401C01904B
:10277000009818B90198B0F5A06FF1D12D48006804
:1027800010F4003F02D00120009001E000200090F2
:10279000009801280AD12748406820F47C10254978
:1027A00048600846406840F4E810486024480068E3
:1027B00040F01000224908600846006820F003003D
:1027C00008600846006840F0020008601948406848
:1027D000184948600846406848600846406840F428
:1027E000806048600846006840F08070086000BF64
:1027F0001048006810F0007FFAD00E48406820F0C2
:1028000003000C4948600846406840F002004860F8
:1028100000BF17E000240140000230001000140047
:102820000008014000100140000C01400048004039
:1028300000440040001002400000FFF0FFFFF6FEE1
:10284000002002401548406800F00C000828E0D144
:10285000FDF785FD1CBD10B5FFF759FFFFF74DFFD4
:102860004FF4E130FFF727FF4FF4E130FFF701FFAE
:10287000FFF723FE41F61F41092000F015FBFFF78B
:10288000F8FDFFF7BFFD00F0BBFD10BD10B572B63F
:10289000FFF7E1FFFFF7A6FD62B610BD0010024092
:1028A000002005E00021E44A1154E44A1154401C80
:1028B0003228F7DB70473EB50446E1A1204601F01F
:1028C000DDFE90B904F16401684600F004FC029B4F
:1028D000DAB2019BD9B2009BD8B200F00FFDD9A0AB
:1028E0009DE80E00FFF7EDFC00BFDBA1204601F0E4
:1028F000C5FEC0B9D9A104F1640001F0BFFE30B932
:10290000D7A001F0EFFC012000F015FD0BE0D8A1ED
:1029100004F1640001F0B2FE28B9D6A001F0E2FC97
:10292000002000F008FDD7A1204601F0A7FE00BB63
:10293000C8A104F1640001F0A1FED8B104F1640162
:10294000D2A0FFF7BEFC002001F011FA01201023F5
:10295000D1A2002100901E2001F035FB01201023A0
:1029600004F1640219460090002001F02CFB01F0F4
:10297000D9F902E0002001F0FAF93EBD2DE9F0435B
:1029800089B007A801F0CEF807A904A801F0EBF878
:10299000069803F0C1FB04460D46059803F0BCFB06
:1029A00006460F46049803F0B7FB804642460B46A6
:1029B000BCA0CDE90067CDE9024501F093FC09B068
:1029C000BDE8F08310B50024012001F0F9F80446B9
:1029D000BD480088A0421ED0BB480480062C19D2F6
:1029E000DFE804F00304080C101413E0B7A001F0B2
:1029F00079FC0FE0BAA001F075FC0BE0BCA001F07F
:102A000071FC07E0BFA001F06DFC03E0C2A001F083
:102A100069FC00BF00BF10BD2DE9F04700240A2269
:102A20000021C24800F0B4FC0446C1480088A0421E
:102A30002FD0BF480480204603F09CFC82464FF014
:102A40008B4103F0A1FB814603F066FB07464FF084
:102A50006632B84B03F062FA05462A460B46B6A02A
:102A600001F040FC204603F085FC82464FF08B418C
:102A700003F08AFB814603F04FFB07464FF06632B6
:102A8000AC4B03F04BFA05462A460B46AAA0FFF7CB
:102A900018FCBDE8F08770B5002400F0F3FE044692
:102AA000AA480168204603F031FC0AD0A748046018
:102AB000204603F031FB05462A460B46A4A001F050
:102AC00011FC70BD0EB5A74800F02FFFA548007897
:102AD000A4494978A34A9278CDE900210290A148FF
:102AE000C3780279B0F906109FA001F0FBFB0EBD80
:102AF0001FB50024FFF7CAFEFFF7D2FEA4A0FFF720
:102B0000E0FB0F208DF800002D208DF801000C2037
:102B10008DF8020006208DF8080008208DF80300CB
:102B20000A208DF804004FF4FC60ADF806009DE823
:102B3000070000F054FF9CA001F0D4FB7AE014B130
:102B4000012C3ED112E003A800F073F9401C0CD018
:102B50009DF80C007B2808D1FFF7A2FE7B203649A8
:102B6000087001240120944908702AE003A800F0AD
:102B700060F9401C24D09DF80C007D2816D19DF8EA
:102B80000C002D498C4A127888542C4800F02AFAFF
:102B900050B18A49294800F047FA28B1874800F027
:102BA00091FA8648FFF787FE002409E09DF80C1093
:102BB000814802780078401C7F4B18701E48815471
:102BC00000BF00BF7E480068642802D900207C490D
:102BD00008607C480068642804D9002079490860AE
:102BE000FFF7F0FE78480068B0F5C87F04D90020F0
:102BF00075490860FFF710FF74480068B0F57A7FE8
:102C000004D9002071490860FFF745FF704800684B
:102C1000B0F57A7F04D900206D490860FFF752FFB4
:102C20006C480068B0F5FA7F04D900206949086053
:102C3000FFF7A4FE83E70000A2000020640000204C
:102C400052474200523A25642C473A25642C423AB6
:102C500025640D0A00000000425A00006F6E00005B
:102C60007B22425A223A226F6E227D0D0A0000001A
:102C70006F6666007B22425A223A226F6666227D88
:102C80000D0A00004F4C4544000000004F4C4544E5
:102C90003D25730D0A000000576176657368617207
:102CA000650000007B22414343223A22583D252EF5
:102CB00031662020593D252E316620205A3D252E93
:102CC0003166227D0D0A0000320000207B224A4F2F
:102CD00059223A224C656674227D0D0A00000000DC
:102CE0007B224A4F59223A225570227D0D0A00005C
:102CF0007B224A4F59223A22446F776E227D0D0A79
:102D0000000000007B224A4F59223A22526967682C
:102D100074227D0D0A0000007B224A4F59223A227C
:102D2000456E746572227D0D0A000000002401408A
:102D30003400002066660A407B22414443223A2246
:102D4000252E3366227D0D0A000000003800002089
:102D50007B2254454D50223A22252E3366227D0D8A
:102D60000A000000960000207B22525443223A229F
:102D700025642E253032642E2530326420253032F1
:102D8000643A253032643A25303264227D0D0A00DF
:102D900055534152543320496E697420537563630F
:102DA0006573730D0A0000007B224A4F59223A22B4
:102DB0004E6F227D0D0A000030000020D40000205C
:102DC0003C00002054000020440000204800002067
:102DD0004C000020500000200021314801600121FA
:102DE000416040F6FF7181600020704701462C4829
:102DF00042680068824219D029484068294A115423
:102E000027488068401E264A90601046406840F679
:102E1000FF72904203DB00222148426004E0204818
:102E20004068401C1E4A5060002070474FF0FF3041
:102E3000FBE702461A48016840F6FF70814201DB59
:102E4000002100E0491C1648406888420AD0154815
:102E5000405C1070124801608068401C104B986004
:102E6000002070474FF0FF30FBE70D4801684068D5
:102E7000814205DA0A4841680068081A401E704716
:102E80000748406800F6FF7005490968401AF6E7F0
:102E900000B5FFF7EAFF40F6FF71081A00BD000019
:102EA000A4110020A40100207FB505460C46012195
:102EB0000220FDF75EFEADF80850ADF8044000209A
:102EC000ADF80A00ADF8060001A92548FEF784F91F
:102ED000012211462248FEF7F6FC1D208DF8000065
:102EE00000208DF8010003208DF8020001208DF8EC
:102EF00003006846FDF7B1FA01211948FEF7C8FC46
:102F00007FBD10B501211648FEF78BFF30B30121BC
:102F10001348FEF797FF13480068401C11490860EA
:102F200011480068401C1049086010480068401CA7
:102F30000E4908600E480068401C0D4908600D48A5
:102F40000068401C0B4908600B480068401C0A4997
:102F500008600A480068401C0849086010BD00006D
:102F6000000400403C0000204000002044000020FD
:102F7000480000204C000020500000205400002099
:102F8000704700BFFEE700BFFEE700BFFEE700BFDF
:102F9000FEE7704770477047704710B540F2255103
:102FA0000D48FEF701F830B10B48FDF77DFFC4B2C4
:102FB0002046FFF71BFF10BD10B540F22551074812
:102FC000FDF7F2FF38B10548FDF76EFF04462146D4
:102FD00003A001F087F910BD004400400048004004
:102FE000256300002DE9F04105460E467B21304661
:102FF00001F0E5FA04467D21304601F0EAFA074681
:10300000381B421C2146284601F00DFB0021381BCD
:10301000401C29543A21284601F0D1FA10B1012070
:10302000BDE8F0810020FBE72DE9F04180460C4629
:103030002221404601F0C3FA054615B90020BDE83B
:10304000F0812221681C01F0BAFA06460EB9002070
:10305000F5E7701B401E87B20FB90020EFE7C4F8F8
:10306000C870691C2046D4F8C82001F0DCFA0020A2
:10307000D4F8C81060542221701C01F0A0FA054653
:103080000DB90020DBE72221681C01F098FA064602
:103090000EB90020D3E7701B401E87B20FB9002085
:1030A000CDE7C4F8CC70691C04F16400D4F8CC20DE
:1030B00001F0B9FA002104F16400D4F8CC20815465
:1030C0000120BCE710B5044604F1640221463AA091
:1030D000FFF7F7F810BD2DE9F04186B080460E46A7
:1030E00034462C21304601F06AFA05462F1B3A4639
:1030F000214601A801F097FA002001A9C85501A8AE
:1031000001F050FA03906C1C2C21204601F057FA74
:1031100005462F1B3A46214601A801F084FA0020FB
:1031200001A9C85501A801F03DFA04906C1C0021CA
:10313000204601F044FA05462F1B3A46214601A8D5
:1031400001F071FA002001A9C85501A801F02AFA7E
:10315000059003A807C888E8070006B0BDE8F0811D
:1031600070B504460E4604F1640001F03DFA85B2E4
:10317000022D0FDD94F86400302809D16520005D30
:10318000782803D06520005D582801D1012070BD4A
:103190000020FCE70020FAE738B504460BA12046E2
:1031A00001F06CFA30B969462046FFF7D9FF08B143
:1031B00000BF00BF38BD00006B65793A25732C76DF
:1031C000616C75653A25730D0A000000466F7277D1
:1031D0006172640008B500200090009002E0009841
:1031E000401C009000982828F9D308BD10B5002293
:1031F00010214B48FDF7A9FA002410E000224FF4FB
:1032000080614748FDF7A1FAFFF7E4FF0122910230
:103210004348FDF79AFAFFF7DDFF601CC4B2202C8B
:10322000ECDB10BD01460020CA43C2F38110704799
:1032300070B5044600251FE014F0004F05D00122B0
:1032400010213748FDF781FA04E0002210213448AC
:10325000FDF77BFA640000224FF480613048FDF7EF
:1032600074FAFFF7B7FF012291022D48FDF76DFABE
:10327000FFF7B0FF681CC5B2202DDDDB70BD2DE966
:10328000F04107460D461646002444F040443046BF
:10329000FFF7C8FF44EA00742846FFF7C3FF44EA7B
:1032A00080643846FFF7BEFF44EA006444EA0644FF
:1032B00044EA05243C432046FFF7BAFFBDE8F0810D
:1032C00010B5012240211748FDF73FFA00224FF4C4
:1032D00080611348FDF739FA002210211048FDF7EC
:1032E00034FAFFF783FF002211461046FFF7C7FFAD
:1032F000002211461046FFF7C2FF10BD70B504460C
:103300000D461646FFF772FF324629462046FFF764
:10331000B6FF324629462046FFF7B1FF70BD0000D8
:10332000000C01400008014010B50022802109482E
:10333000FDF70BFA10BD10B504462CB10122802117
:103340000448FDF702FA04E0002280210148FDF75D
:10335000FCF910BD0008014070B504460D4600267A
:103360000723012229462046FEF72FFE0121204691
:10337000FEF7FFFD00BF02212046FEF76BFF18B9E4
:10338000701CC0B20600F6D12046FEF785FE70BD67
:103390002DE9F0410746884614460025002609E03D
:1033A00041463846FFF7D8FF05440A20FEF7CEFF16
:1033B000701C86B2A642F3DBB5FBF4F5A8B2BDE8FB
:1033C000F081000008B501210820FDF7C5FB4FF48E
:1033D0004070ADF8000014208DF8030002208DF835
:1033E00002006946F848FDF701F901221102F6488A
:1033F000FDF7ABF901225102F348FDF7A6F908BD2C
:1034000010B5FFF7DFFF10BD38B504464FF400706C
:10341000ADF800001CB114208DF8030002E0482034
:103420008DF8030002208DF802006946E648FDF79A
:10343000DDF80220FEF78AFF38BD10B50120FFF746
:10344000E3FF01225102E048FDF77FF90120FEF77A
:103450007DFF01221102DC48FDF777F90120FEF71C
:1034600075FF00224FF40071D748FDF76EF9012077
:10347000FEF76CFF00224FF48071D348FDF765F929
:103480000120FEF763FF10BD10B500224FF48071DC
:10349000CD48FDF75AF900224FF40071CA48FDF7F4
:1034A00054F90120FEF752FF01221102C648FDF730
:1034B0004CF90120FEF74AFF01225102C248FDF7F4
:1034C00044F90120FEF742FF10BD10B50024002290
:1034D0004FF48071BC48FDF738F90120FEF736FF44
:1034E00001221102B848FDF730F90020FFF78CFFE8
:1034F00008E0601CC0B20446C82803DDFFF7C4FF23
:10350000002010BD4FF40071AF48FDF700F900280E
:10351000EFD10120FFF778FF00224FF48071AA4815
:10352000FDF713F90120FEF711FF0120E9E710B5BF
:1035300000224FF48071A448FDF707F90120FFF73E
:1035400063FF00224FF400719F48FDF7FEF8012051
:10355000FEF7FCFE012211029B48FDF7F6F8012060
:10356000FEF7F4FE00224FF480719748FDF7EDF866
:1035700010BD10B500224FF480719348FDF7E5F8B7
:103580000120FFF741FF012251028F48FDF7DDF8CE
:103590000120FEF7DBFE012211028B48FDF7D5F872
:1035A0000120FEF7D3FE00224FF480718648FDF71C
:1035B000CCF810BD70B504460120FFF725FF0025AB
:1035C00026E000224FF480717F48FDF7BEF801200D
:1035D000FEF7BCFE14F0800F05D0012251027A489C
:1035E000FDF7B3F805E000224FF400717648FDF7CF
:1035F000ACF86006040E0120FEF7A8FE01221102BD
:103600007148FDF7A2F80120FEF7A0FE681CC5B2C4
:10361000082DD6DB70BD70B504460D461646FFF783
:103620000CFF2046FFF7C6FFFFF74FFF2846FFF7C6
:10363000C1FFFFF74AFF3046FFF7BCFFFFF745FF2A
:10364000FFF722FF70BD70B5054600240020FFF78C
:10365000DBFE00261FE000224FF480715A48FDF780
:1036600074F80120FEF772FE012211025648FDF7A0
:103670006CF86006040E4FF400715348FDF747F8EC
:1036800010B144F0010401E024F001040120FEF730
:103690005DFE701CC6B2082EDDDB15B9FFF747FFD3
:1036A00001E0FFF766FF204670BD70B504460D4689
:1036B0000026FFF7C2FE2046FFF77CFFFFF705FF5D
:1036C0002846FFF777FFFFF700FFFFF7B6FE44F04D
:1036D0000100FFF76FFFFFF7F8FE0120FFF7B3FFD0
:1036E0000646FFF7D1FE304670BD2DE9F041074692
:1036F000884614461E4641463846FFF7D6FF054623
:103700001EB10120A040284303E00121A14025EA89
:103710000100C5B22A4641463846FFF77CFF01202A
:10372000BDE8F0812DE9F0478046894614461D46E4
:10373000089E49464046FFF7B8FF0746601CFF2138
:1037400001FA00F0C4F108012944491EFF220A4190
:10375000104300F0FF0AC5F1080006FA00F0C6B2F7
:10376000C4F10700064107EA0A0737433A464946CB
:103770004046FFF750FF0120BDE8F0872DE9F041FA
:103780000546884616461F4606B117B90020BDE813
:10379000F081FFF752FE2846FFF70CFFFFF795FE7A
:1037A0004046FFF707FFFFF790FE002406E0385D74
:1037B000FFF700FFFFF789FE601CC4B2B442F6DBDE
:1037C000FFF762FE0120E2E7000C01402DE9F04125
:1037D0000546884616461F4606B117B90020BDE8C3
:1037E000F081FFF72AFE2846FFF7E4FEFFF76DFEA3
:1037F0004046FFF7DFFEFFF768FEFFF71EFE45F0CD
:103800000100FFF7D7FEFFF760FE00240DE0701EF9
:10381000A04204D10120FFF716FF385503E0002035
:10382000FFF711FF3855601CC4B2B442EFDBFFF75D
:103830002BFE0120D3E700004100224A11607047AF
:1038400038B504462546012C0DD01E4908786B4634
:1038500002222946FFF7BAFF9DF801009DF80010EB
:1038600040EA012038BD174908782946FFF71DFFB7
:103870008DF800009DF80000F4E710B50020FFF778
:10388000DFFF10BD2DE9F041FFF7F7FF804602F0A2
:1038900032FB064600220C4B02F0BEF9044602F051
:1038A00089F9BDE8F08110B50220FFF7C9FF10BD0E
:1038B00010B50320FFF7C4FF10BD10B50120FFF7BE
:1038C000BFFF10BD580000200000704038B504460E
:1038D0000D468DF800408DF801506B4602222146BE
:1038E000D020FFF74BFF38BD10B5044621460E200F
:1038F000FFF7ECFF10BD10B504462046FFF7F4FFBC
:1039000010BD10B501460A46C81701EB1070001132
:10391000A1EB00100B46CC1701EB1474241104EB3F
:10392000840400EB4400C0B210BD2DE9F04186B024
:1039300004464FF0000800208DF804009DF80410A4
:1039400001AB0722D020FFF741FF002513E001A8BB
:10395000465D052D08D106F01F00FFF7D2FF8DF858
:1039600015004FEAD61804E03046FFF7CAFF04A955
:103970004855681CC5B2062DE9DDB8F1010F04D128
:103980009DF8160000F5FA6703E09DF8160000F2B6
:103990006C779DF8100020709DF8110060709DF804
:1039A0001200A0709DF81400E0709DF815002071C1
:1039B00038B2E0809DF8130020729DF81600E07286
:1039C00006B0BDE8F08101460A2091FBF0F200FB51
:1039D000121291FBF0F002EB0010C0B2704737B545
:1039E00086B0BDF91E00B0F5FA6F08DD8025BDF880
:1039F0001E00A0F5FA60C0B28DF8230007E0002594
:103A0000BDF81E00A0F26C70C0B28DF823009DF8C6
:103A100018008DF804009DF819008DF805009DF838
:103A20001A008DF806009DF820008DF807009DF81B
:103A30001B008DF808009DF81C008DF809009DF80A
:103A400023008DF80A0000240FE001A9085DFFF7AC
:103A5000BAFF01A90855052C05D19DF80900284495
:103A6000C0B28DF80900601CC4B2072CEDDB002049
:103A70008DF81400002405E001A8005D03A9085595
:103A8000601CC4B2072CF7DB9DF8141003AB0722AF
:103A9000D020FFF773FE09B030BD000010B504461A
:103AA00022462D21A620FFF7B6FD10BD10B5044615
:103AB00022463121A620FFF7AEFD10BD10B5002033
:103AC000FFF7ECFF0A20FEF764FC0B20FFF7EEFF88
:103AD0000A20FEF75EFC0820FFF7E0FF0A20FEF751
:103AE00058FC0420314908800A2048806FF01300F8
:103AF000888010BD10B50021A620FFF7D6FD10BDAF
:103B000010B52C21A620FFF7D0FD10BD10B52D213A
:103B1000A620FFF7CAFD10BD10B53121A620FFF782
:103B2000C4FD10BD1CB504466B4606223221A620FA
:103B3000FFF74CFE9DF800009DF8011040EA0120BF
:103B400000B220809DF802009DF8031040EA012099
:103B500000B260809DF804009DF8051040EA012045
:103B600000B2A0801CBD2DE9FC4781468A46002496
:103B700018E03AF914100D4A32F91420881A02F0AC
:103B8000A3F907460A4A0B4B02F0C8F905460A4A50
:103B90000A4B02F0C3F9CDE9000102F00BF849F835
:103BA0002400641C032CE4DBBDE8FC875C000020DF
:103BB000FCA9F1D24D62703F05A3923A019D2340CA
:103BC00010B5044614B10120354908703448007816
:103BD000002841D001213348FCF799FD98B102211A
:103BE0003148FCF794FD70B101213048FCF78FFD9E
:103BF00048B110212C48FCF78AFD20B102212B4846
:103C0000FCF785FD40BB0A20FEF7C3FB00202449DA
:103C1000087001212348FCF77AFD08B9012010BD86
:103C200002212148FCF773FD08B90220F7E70121C2
:103C30001E48FCF76CFD08B90320F0E710211A4874
:103C4000FCF765FD08B90420E9E702211748FCF7F5
:103C50005EFD10BB0520E2E701211248FCF757FD8D
:103C6000012817D002211048FCF751FD012811D07E
:103C700001210E48FCF74BFD01280BD010210A480A
:103C8000FCF745FD012805D002210848FCF73FFD5F
:103C9000012802D10120024908700020BFE700007E
:103CA00062000020000C01400008014000100140AB
:103CB00070B505460C46FFF7C0FB7820FFF77AFC8D
:103CC000FFF703FC2CB14020FFF774FCFFF7FDFB6E
:103CD00004E00020FFF76EFCFFF7F7FB2846FFF734
:103CE00069FCFFF7F2FBFFF7CFFB70BD10B50021B9
:103CF0008D20FFF7DDFF00211420FFF7D9FF002101
:103D0000AF20FFF7D5FF10BD10B500218D20FFF7C4
:103D1000CFFF00211020FFF7CBFF0021AE20FFF7DF
:103D2000C7FF10BD70B500241EE004F1B001C8B299
:103D30000021FFF7BDFF00BF00210846FFF7B8FFD5
:103D400000211020FFF7B4FF00BF002508E0F7496D
:103D500001EBC501085D0121FFF7AAFF681CC5B290
:103D6000802DF4DB601CC4B2082CDEDB70BD70B5A6
:103D7000064600241BE004F1B001C8B20021FFF7A1
:103D800097FF00BF00210846FFF792FF0021102097
:103D9000FFF78EFF00BF002505E0E44800EBC500FB
:103DA0000655681CC5B2802DF7DB601CC4B2082C18
:103DB000E1DBFFF7B7FF70BDF0B5144600267F28A2
:103DC00001DC3F2900DDF0BD0B46CF1701EB577733
:103DD000FF10C7F10707FAB2CF1701EB5777FF10B3
:103DE000A1EBC707FDB2C5F107070123BB40DEB257
:103DF0004CB1CE4B03EBC0039B5C3343CB4F07EB83
:103E0000C007BB5408E0C94B03EBC0039B5CB34342
:103E1000C64F07EBC007BB5400BFD4E72DE9F047FE
:103E200006460F4690469946DDF820A034460CE041
:103E30003D4606E0524629462046FFF7BDFF681C76
:103E4000C5B24D45F6DD601CC4B24445F0DDFFF758
:103E500069FFBDE8F0872DE9FF4F0E4614461F4667
:103E6000DDF83480B346A4F12000C4B2002551E04F
:103E70000C2F14D1B8F1000F07D004EB4400AC496B
:103E800001EB800010F805A019E004EB4400A849FC
:103E900001EB8000405DC04300F0FF0A0FE0B8F185
:103EA000000F05D0A34800EB041010F805A006E0B1
:103EB000A04800EB0410405DC04300F0FF0A4FF043
:103EC000000921E01AF0800F05D001223146009848
:103ED000FFF772FF04E0002231460098FFF76CFF05
:103EE0004FEA4A604FEA106A701CC6B2A6EB0B009C
:103EF000B84205D15E460098401CC0B2009006E072
:103F000009F1010000F0FF09B9F1080FDADB00BF89
:103F1000681CC5B2BD42ABDBBDE8FF8F10B50246E1
:103F2000012000E050430B00A1F10104E1B2F9D1FE
:103F300010BD2DE9FF4F81B0074691461E460E9DEC
:103F40004FF0000A002439E0301B401EC1B20A20A5
:103F5000FFF7E4FFB9FBF0F00A21B0FBF1F201FB3F
:103F60001208BAF1000F16D1701EA04213DDB8F18D
:103F7000000F0ED10120AB4605EBDB71491001FBB0
:103F800004710090C8B22B4620220299FFF763FF0C
:103F900012E04FF0010A0120AB4605EBDB7149103E
:103FA00001FB04710090C8B208F13001CAB22B467F
:103FB0000299FFF750FF00BF601CC4B2B442C3DBDC
:103FC00005B0BDE8F08F2DE9F84306460F461546CB
:103FD0001C46DDF8208021E004EBD4714910C1F1CA
:103FE0008001B1420BDA00263819C7B2C4F1400093
:103FF000B84204DA002006460746FFF7B8FECDF8BF
:1040000000802A78234639463046FFF724FF2046B1
:1040100004EBD07106EB6101CEB26D1C287800284C
:10402000DAD1BDE8F8832DE9F04F06460C46174675
:104030004FF00009A246CB46002528E0A7F130004A
:104040003D4901EB401010F805904FF0000818E0D2
:10405000C9F3C01B5A4621463046FFF7ADFE4FEA72
:1040600049604FEA1069601CC4B2A4EB0A00102832
:1040700003D15446701CC6B206E008F1010000F0FE
:10408000FF08B8F1080FE3DB00BF681CC5B2202DA4
:10409000D4DBBDE8F08F2DE9F04F06460C461746FD
:1040A0004FF00009A246CB46002528E0A7F13000DA
:1040B000224901EB801010F805904FF0000818E03D
:1040C000C9F3C01B5A4621463046FFF775FE4FEA3A
:1040D00049604FEA1069601CC4B2A4EB0A002028B2
:1040E00003D15446701CC6B206E008F1010000F08E
:1040F000FF08B8F1080FE3DB00BF681CC5B2402D14
:10410000D4DBBDE8F08F2DE9F04F07468846914695
:104110001E46DDF824A0F01DC11700EB5171C1F35C
:10412000CF0B002527E0002421E00000B011002083
:1041300034640008A8680008986E0008F86F00084A
:10414000E11704EB5171C91005FB0B92515C04F0AF
:10415000070380221A41114207D008EB0502D1B2B1
:104160003A19D0B20122FFF727FE601C84B2B44294
:10417000E6DB681C85B25545D5DBBDE8F08F08B598
:1041800000224FF480514648FCF7DFFA00224FF43A
:1041900000714448FCF7D9FA012211024148FCF7AA
:1041A000D4FA0021AE20FFF783FD00210846FFF777
:1041B0007FFD00211020FFF77BFD00214020FFF74D
:1041C00077FD00218120FFF773FD0021CF20FFF74D
:1041D0006FFD0021A120FFF76BFD0021C020FFF73C
:1041E00067FD0021A620FFF763FD0021A820FFF74F
:1041F0005FFD00213F20FFF75BFD0021D320FFF78B
:1042000057FD00210846FFF753FD0021D520FFF799
:104210004FFD00218020FFF74BFD0021D920FFF743
:1042200047FD0021F120FFF743FD0021DA20FFF7D1
:104230003FFD00211220FFF73BFD0021DB20FFF7AF
:1042400037FD00214020FFF733FD00212020FFF73C
:104250002FFD00210220FFF72BFD00218D20FFF70D
:1042600027FD00211420FFF723FD0021A420FFF7E4
:104270001FFD0021A620FFF71BFD0021AF20FFF747
:1042800017FD0020FFF773FD40208023064A002120
:1042900000900846FFF737FFFFF744FD08BD000018
:1042A000000C0140000801406073000870470000E6
:1042B0007CB51D4616460C00009001D02044401EDF
:1042C000074B7B442A4669460190304600F0B7FC14
:1042D00005461CB10020694600F0C4FC28467CBDA0
:1042E000A90900000FB4044910B503AA029800F010
:1042F000DDFC10BC5DF814FB2800002070B50446FE
:1043000085690068C10601D5302600E02026C00777
:1043100008D070BDD4E9012130469047206A00F1F1
:10432000010020626D1EF5D570BD70B5044685692B
:104330000078C00708D170BDD4E901212020904742
:10434000206A00F1010020626D1EF5D570BD70B5C8
:104350000C460546012A05D02878800600D5EA6972
:10436000002302E0012305E05B1C934202D2E05CE3
:104370000028F9D1A869E618C01AA861286A18446B
:1043800028622846FFF7BAFF04E0D5E9012114F8B6
:10439000010B9047B442F8D32846FFF7C6FF70BD23
:1043A0002DE9F0410646002410687529314616A50E
:1043B00011D000F0ABF9002803DAC0F1000013A51A
:1043C00007E031688A0701D511A502E0490704D545
:1043D00010A5012401E000F0A2F900210A2306F152
:1043E000240707E0B0FBF3F203FB120030307854EF
:1043F0001046491C0028F5D123462A463046BDE820
:10440000F04100F095B90000000000002D00000010
:104410002B000000200000002DE9F05F89460446D3
:104420004FF0000ADFF878B1FB44C0F820A0204626
:10443000E1688847002875D0252806D0D4E90121F5
:104440009047206A401C2062F1E700265F46204624
:10445000E16888472028054608DB312D06D207EBA6
:10446000050010F8200C08B10643F0E7B00701D5AD
:1044700026F00406C4F81CA00027C4F818A02A2DB2
:1044800009D0284601F063FB38B304EB8708303DC0
:10449000C8F8185019E059F8041B204604EB8702AD
:1044A0009161E1688847012F054618D1E06900282D
:1044B00020DA26F020061DE0D8F8180000EB800076
:1044C00005EB40003038C8F818002046E1688847FE
:1044D000054601F03CFB0028EED1012F0AD02E2D1D
:1044E00008D12046E16888477F1C0546022F46F028
:1044F0002006C4DBA069002803DA404246F001062A
:10450000A061F00701D026F010066C2D0BD0682DAD
:1045100009D04C2D39D06A2D35D0742D35D07A2D57
:1045200033D016E038E0E1682F4620468847B8428D
:10453000054609D16C2F26D04FF48060E168064310
:1045400020468847054604E06C2F1AD04FF480704F
:1045500006430DB3A5F14100192802D8203546F4D1
:1045600000664A462946204626604E46FBF7F8FD7F
:1045700080B101280BD0F61D26F0070000F10809D4
:1045800055E74020E4E78020D8E70020D6E706F191
:1045900004094CE7284651E7206ABDE8F09F000077
:1045A0003433000070B5064600F0ACF804680546E8
:1045B00030460A22002100F0AFFC2C6070BD401E86
:1045C000CAB210F8011F8A4202D00029F9D1002096
:1045D00070470022CBB210F8011B994200D1421E55
:1045E0000029F8D11046704710B5431C02E010F8BE
:1045F000011B71B18107FAD14FF0013202C88C1A48
:104600008C4314EAC211F9D0C01A0A0603D0C01EA6
:1046100010BDC01A10BD0A0401D0801E10BD0902D1
:10462000FCD0401E10BD10B5044610F0030F08BFAB
:1046300011F0030F40F015804FF0013E121FC0F241
:104640000E8051F8043BA3EB0E0C2CEA030C1CEA81
:10465000CE1C08BF40F8043BF0D0A1F1040102F1E8
:104660000402521E08DB11F8013B002B00F8013B4D
:10467000F7D1114600F088FC204610BD4FF0013CF8
:1046800050F8042B51F8043B9A4221D1A2EB0C03C1
:10469000934313EACC1317D150F8042B51F8043B81
:1046A0009A4215D1A2EB0C03934313EACC130BD11E
:1046B00050F8042B51F8043B9A4209D1A2EB0C03A9
:1046C000934313EACC13DBD04FF00000704700BFD8
:1046D000D01A01BAB1FA81F101F0180122FA01F001
:1046E000CB40C1F12001DBB2C0B2C01A2CFA01F3F9
:1046F000D11A914311EAC311E6D170477047704750
:104700007047704700487047B015002009684A0597
:1047100001D540B27047C905FCD500B270470968A1
:104720004A0501D5C0B27047C905FCD580B27047B3
:104730002DE9F0470D4699469246044600F12408BB
:104740000168880604D5E06921F01001216000E0CD
:104750000120A84202DDA0EB050700E00027A169C7
:1047600007EB050202EB0900A1EB0000A061207835
:10477000C00602D42046FFF7C1FD002608E0D4E9B8
:1047800001211AF806009047206A401C761C20621E
:104790004E45F4DB2078C0060AD52046FFF7AEFD73
:1047A00006E0D4E9012130209047206A401C2062B5
:1047B000381EA7F10107F4DC07E0D4E9012118F85D
:1047C00005009047206A401C2062281EA5F10105C3
:1047D000F3DC2046FFF7A9FD2078000602D5022071
:1047E000BDE8F0870120FBE711680268006A530505
:1047F00001D508700BE0D30501D5088007E013064A
:1048000003D5C217C1E9000201E052060860012089
:10481000704770472DE9FF4F0C461E464FF0FF379B
:104820008BB0D2E90001DDF860800A908A46C1F3BE
:104830000A5505B93D46002108464FF00000BAF17F
:10484000000F00F4400005DA00EB80004FF4400157
:1048500001EA50004FEA9059B9F1010F00DDB94665
:104860000A9850EA4A000ED044F61050A5F2FF35DF
:1048700045432F14B8F1000F1ED07542291E1EDDCE
:10488000C9F100021CE0B8F1010F4FF0000001D0A7
:10489000302103E0F24305E02154401CB042FBDB31
:1048A00030460022002121540B99C1F80880C1E94B
:1048B00000200FB0BDE8F08FBD1B6D1CDEE74A463F
:1048C00000DA694206A800F07DFC06AB07CB03AB1B
:1048D00007C350460A9900F06BFD8DE80700A0F56C
:1048E00000501F3800900398002D09DD42F21F018F
:1048F0004A46084403A90390684600F0CAFF08E04E
:10490000A0F500504A461F3803A90390684600F0FE
:10491000D4FF8DE807000004000C03D04FF0FF30F7
:10492000410800E01046B8F1000F03D000220092C9
:1049300015461FE0751E06D400F058FB02F1300248
:1049400062556D1EF8D5B3460122084302D00022FD
:104950007F1C04E02078302801D100227F1E002A2D
:10496000099787D01DE0112D07DA00F03FFB3032A8
:1049700062556D1C50EA0102F5D108430FD10021A8
:10498000681E05E0235C625C6354491C2254401E8F
:104990008142F7DBAB46A81B401E099001E000985E
:1049A00048B1002004F80B000B98099AC0F8088061
:1049B000C0E9002B7DE711264FF000085AE72DE9EA
:1049C000F04F88460446D21D22F0070191B0D1E98C
:1049D0000001CDE90A0101F0A6F802460B98C00FCC
:1049E00001D02D2007E02068810701D52B2002E0AF
:1049F000202101EAC000032A099001D0072A05DB23
:104A000003464146204600F037FB0FE12078800640
:104A100001D5E06900E00620B8F1650F814606D0B7
:104A2000B8F1660F18D0B8F1670F72D132E00020EC
:104A3000B9F1110F009001DB112301E009F101032D
:104A40000AAA01A90CA8FFF7E5FEDDE90C70002613
:104A500009F10105834648E001204B4600904FF0E4
:104A600000470AAA01A90CA8FFF7D4FEDDE90DB0A2
:104A70000C995D46002618B909F1010001EB00050B
:104A8000B9EB050003D4C0F1FF3609F10105A5EB30
:104A900009002BE0B9F1010F01DA4FF00109002004
:104AA000B9F1110F0090484601DD112300E00346E3
:104AB0000AAA01A90CA8FFF7ADFEDDE90C704D466E
:104AC00000268346207800070AD4AB4500DA5D460D
:104AD00001A8012D04DD411911F8011C302907D06E
:104AE0004F4502DA17F1040F04DA0120824610E084
:104AF0006D1EEEE7002F02DCED1B3E4403E0781C48
:104B0000A84200DD0546A7EB060000F1010A4FF0C0
:104B100000472078000703D4AA4501DB4FF0FF3A95
:104B20000021B7F1004F0DF143088DF8431023D059
:104B300002202B23002F01DA7F422D234FF00A0C95
:104B4000011EA0F1010000DC4FB197FBFCF10CFB52
:104B500011720F4602F1300208F8012DF0E7A8F1BA
:104B6000010003702188090501D5452100E0652178
:104B7000A0F1010800F8011C09980FA9A1EB080792
:104B800007F1070700B1012000EB050101EBEA7016
:104B9000A1693844A1EB0000A0F10100A0612078D8
:104BA000C00602D42046FFF7A9FB099830B1D4E92A
:104BB00001219047206A00F1010020622078C006A0
:104BC00020D52046FFF79AFB1CE0002E04DBB345FE
:104BD00002DD01A8805D00E03020D4E9012190478A
:104BE000206A761C401CBAF1010A20620AD100F04A
:104BF000F9F9C0680168405CD4E901219047206A56
:104C0000401C2062281EA5F10105DEDC07E0D4E986
:104C1000012118F8010B9047206A401C2062381EC1
:104C2000A7F10107F3DC2046FFF77FFB022011B05C
:104C300040E6000001694A1C02610878704700B52F
:104C40008FB0CDE901310021059105497944CDE9C5
:104C5000031011466846FFF7DFFB0FB000BD0000F0
:104C6000E5FFFFFF0A6802F8010B0A607047D1E90F
:104C700000239A4202D2531C0B601070704710B58B
:104C8000436913B1AFF3008001E0FFF760FB01203F
:104C900010BD127800F124010A7000224A7001222E
:104CA000EDE711684FF0FF32E9E70000074B70B500
:104CB0000D467B44FFF7C3FF0446284600F0F4FA94
:104CC00010B14FF0FF3070BD204670BDEDD5FFFF35
:104CD0002DE9FF5F15468A460446DFF8AC80F844AC
:104CE0000027D8E900103E46CDE9001011E03AF85F
:104CF00016106A4602A800F0DBFA411C07D02178A2
:104D0000890603D5E269391891420ED8074406F1A5
:104D100001062078800602D5E069B84205DDAE4282
:104D2000E5DB3AF816000028E1D1A069C01BA061BC
:104D30002046FFF7E3FAD8E90010CDE90010002083
:104D400016E03AF818106A4602A800F0B1FA814657
:104D5000401C0BD000250DF1080B05E0D4E9012122
:104D60001BF8050090476D1C4D45F7D308F1010075
:104D7000B0428046E5DB206A384420622046FFF7D7
:104D8000D4FABDE8FF9F0000922A00002DE9F0410F
:104D90008046D21D22F007020025D2E90002F52943
:104DA00014A612D0002A06DA0023D0EB030063EB2E
:104DB000020211A608E0D8F800108B0701D50FA653
:104DC00002E0490701D50EA601251146002408F18D
:104DD000240704E000F00AF930323A55641C50EA26
:104DE0000102F7D12B46324621464046BDE8F0414C
:104DF000FFF79EBC000000002D0000002B0000000B
:104E00002000000030B4002100F124040CE002F086
:104E1000070505F130054FEAD20242EA43726554B4
:104E200001F101014FEAD30352EA0305EFD104680F
:104E3000002310A2250708D504F020040C4304D059
:104E4000C46901230CA2641EC46130BCFFF770BCAE
:104E500010B5044621461068FFF761FC0246204663
:104E6000BDE810400023CDE7D21D22F00701D1E9B3
:104E70000023C7E70000000030000000F0B40D463A
:104E80000188090502D5234C7C4402E0214C7C4476
:104E90000E34002100F124060BE002F00F074FEA68
:104EA0001212E75D42EA03724FEA1313775401F1DD
:104EB000010152EA0307F0D102780023120704D55A
:104EC000702D06D009B1113402232246F0BCFFF741
:104ED0002FBC10340123F8E770B504460D46214677
:104EE0001068FFF71CFC024629462046BDE87040CA
:104EF0000023C3E7D21D22F00703D3E90023BDE757
:104F00000368126843F0200303600823C361002391
:104F1000B4E70000F02800002DE9F04791460F4665
:104F200080460446002614F8015B2DB100F052F8CB
:104F30000068405DC007F6D12B2D02D02D2D18D072
:104F4000641E4A463946204600F0ECF827B139681D
:104F5000A14201D1C7F800804FF0020471050BD5C2
:104F60004042002803DDFFF7CDFB0460A007BDE849
:104F7000F08746F48066E4E70028F8DAFFF7C2FB22
:104F800004606FF00040F2E74FF000020429C0F027
:104F9000128010F0030C00F0AD81CCF1040CBCF1D8
:104FA000020F18BF00F8012BA8BF20F8022BA1EBBD
:104FB0000C0100F09FB95FEAC17C24BF00F8012B0F
:104FC00000F8012B48BF00F8012B704700487047DC
:104FD000B015002010B500F005F8001D10BD00BF91
:104FE000A90B000000487047D015002030B5B0F183
:104FF0000A024FEA900E71F100034EEA817EB0EB97
:105000000E0061EB91014FEA101E4EEA017E10EB9B
:105010000E0041EB11114FEA102E4EEA016E10EB1B
:105020000E0041EB11214FEA104E4EEA014E10EBFB
:105030000E0041EB1141401841F100014FEAD00050
:1050400040EA41704FEAD10110EB80054FEA81043C
:1050500044EA907444EB01046D1944EB0404521BC0
:10506000A3414FF0000348BF0A3200D530BD401CB9
:1050700041F1000130BD00002DE9F0411F4604461A
:1050800003260168072A01F4006004DB08B116A5B5
:1050900005E016A503E008B115A500E015A521F06F
:1050A00010002060A069C01EA0610FB1401EA06169
:1050B0002046FFF723F94FB1D4E901213846904744
:1050C000206A401C2062C01C206206E0206AFAE7C9
:1050D000D4E9012115F8010B9047761EF8D220463D
:1050E000FFF723F9BDE8F0814E414E006E616E007E
:1050F000494E4600696E660010B5436913B1AFF3BF
:10510000008001E0FFF7E4FD012010BD128800F1EE
:10511000240182840022C2840122EDE711684FF04D
:10512000FF32E9E72DE9F05F824615468B460027FE
:105130000AF10104B9460078302801D09DB113E08E
:1051400014F8010B0127782803D0582801D045B165
:105150000AE00DB1102D07D1002714F8010B10251E
:1051600002E0082500E00A250026B0460EE005FB17
:10517000080005FB06F101271FFA80F801EB104635
:10518000B6F5803F00D3B94614F8010B294600F06C
:10519000FBF80028EBDABBF1000F05D00FB1641E5D
:1051A00000E05446CBF80040B9F1000F06D0FFF7FD
:1051B000A9FA02210160C81EBDE8F09F48EA064036
:1051C000FAE700002DE9F047814616468AB03548D7
:1051D0007844D0E9002380680092CDE9013031485D
:1051E00078440C38D0E90223006903924FF037026B
:1051F000CDE9043041F69B30014491FBF2F0A0F17F
:10520000800502FB10141B3C02D56442012000E023
:105210000020DFF890A080460027FA44AAF1C60AD1
:105220000DE0E00709D03246684607EB47010AEB7C
:10523000810100F042FB8DE8070064107F1C002C08
:10524000EFD1184F7F44B43F17E0E80713D007EBC6
:1052500004100DF1180A90E80E00AAE80E00C068CC
:10526000F04201D198190890324606A903A800F02F
:1052700024FB03AB07C36D10641C002DE5D132463F
:105280006946B8F1000F03A802D000F002FB01E06C
:1052900000F013FBC9E90001C9F808200AB0BDE815
:1052A000F08700004C260000007B00F08000704773
:1052B00070B516460C460546FFF78CFE036893F85A
:1052C0000101012806D0FF2C0FD8185D68B101201C
:1052D0002C7070BDD3F8070132462146034428469E
:1052E000BDE8704003F2071318474FF0FF3070BD60
:1052F0004FF0000200B5134694469646203922BF6F
:10530000A0E80C50A0E80C50B1F12001BFF4F7AFB9
:10531000090728BFA0E80C5048BF0CC05DF804EB9B
:10532000890028BF40F8042B08BF704748BF20F809
:10533000022B11F0804F18BF00F8012B7047754603
:10534000FFF744FEAE4605006946534620F00700CD
:10535000854618B020B5FBF769F8BDE820404FF04E
:1053600000064FF000074FF000084FF0000B21F04F
:105370000701AC46ACE8C009ACE8C009ACE8C0091C
:10538000ACE8C0098D4670473A2800D2303820F08A
:105390002002412A01D3A2F13700884201D34FF005
:1053A000FF3070470446AFF300802046FAF73BFF1A
:1053B0005FEA400C08BF91F0000F4FEA8C234FEAE0
:1053C000C12243EA51514FEA1C5018BF00F5F0408A
:1053D0004FEA300018BF41F000415FEA6C5C00F01A
:1053E0002980BCF1FF3F08BF40F080407047130C9C
:1053F00006BF12044FF0100C4FF0000C130E04BF48
:1054000012020CF1080C130F04BF12010CF1040C72
:10541000930F04BF92000CF1020CD30F04BF520093
:105420000CF1010C11464FF00002A0F11F00A0EB9F
:105430000C00704711F0004F08BF704731F0004179
:105440003FF4D5AF0B0C06BF09044FF0100C4FF022
:10545000000C0B0E04BF09020CF1080C0B0F04BF6B
:1054600009010CF1040C8B0F04BF89000CF1020C34
:10547000CB0F04BF49000CF1010CCCF12003A0EBD1
:105480000C0022FA03F302FA0CF241EA030100F1E4
:105490000100704720F07F4C80EA030023F07F4733
:1054A000ACEB070303F57C5300F0004003F1FF036E
:1054B0002DE980494FEA154B09B44FEA144325EA18
:1054C0000B4E24EA03480FF2042606EB1327490883
:1054D0003E785FEA320203FB0667C7F5000707FB69
:1054E00006F64FEA54374FEAD64606F1020607FBA6
:1054F000066CCCF1005C4FEA1C472CEA074C07FB1A
:1055000006F40CFB06F504EB15464FEA961634BF7D
:1055100000204FF000404FEAD13706FB07FC4FEA6E
:105520001C4C0CFB0BF7D21B03FB0CF761EB0701C8
:105530000CFB0EF7B0EB074072EB17420CFB08F7C1
:1055400034BFA2EB0742B2EB074261EB17414FEACF
:105550000C444FEA910706FB07FC4FEA1C4C0CFB7E
:105560000BF7B0EBC74072EB573203FB0CF734BFBD
:10557000A2EBC742B2EBC74261EB57310CFB0EF70F
:10558000B0EBC70072EB57720CFB08F734BFA2EB0D
:10559000C702B2EBC70261EB5771039F4FEA81610B
:1055A00041EA921104EBCC044FEAD1374FEA826210
:1055B00006FB07FC42EA90124FEA80604FEA1C4C5F
:1055C0000CFB0BF7D21B03FB0CF761EB07010CFB89
:1055D0000EF7B0EB074072EB17420CFB08F734BF35
:1055E000A2EB0742B2EB074261EB17414FEA8C5541
:1055F0004FEA910704EB9C2406FB07FC4FEA1C4C86
:105600000CFB0BF7B0EBC74072EB573203FB0CF708
:1056100034BFA2EBC742B2EBC74261EB57310CFB80
:105620000EF7B0EBC70072EB57720CFB08F734BFF4
:10563000A2EBC702B2EBC70261EB577115EB4C2529
:105640004FEA816141EA92114FEA82624FEAD13713
:1056500042EA901206FB07FC44F100044FEA806026
:105660004FEA1C4C0CFB0BF7D21B03FB0CF761EB56
:1056700007010CFB0EF7B0EB074072EB17420CFB77
:1056800008F734BFA2EB0742B2EB074261EB1741C8
:1056900015EB1C154FEA813141EA92414FEA823203
:1056A00042EA90424FEA80304FEA0C7644F100041F
:1056B00048EA03434EEA0B484FF0000EB2EB080CE9
:1056C00071EB030724BF624639464EEB0E0E4FF0D6
:1056D000000B0018524149414BEB0B0BB2EB080C8D
:1056E00071EB03077BF1000B24BF624639464EEB9A
:1056F0000E0E4FF0000B0018524149414BEB0B0BC3
:10570000B2EB080C71EB03077BF1000B24BF624680
:1057100039464EEB0E0E51EA020718BF46F001065D
:1057200016EB0E7655F1000254F1000103D5BDE8E9
:105730008901BDE80088BDE88901BDE80048B619C7
:10574000524141EB0101A3F10103704780807F7E4C
:105750007D7C7B7A797877767675747372717170E7
:105760006F6E6E6D6C6C6B6A6A6968686766666599
:105770006464636362616160605F5F5E5E5D5D5C27
:105780005C5B5B5A5A595958585757565655555598
:105790005454535352525251515050504F4F4F4EF8
:1057A0004E4D4D4D4C4C4C4B4B4B4A4A4A49494946
:1057B0004848484747474746464645454544444488
:1057C000444343434342424242414141002B26D499
:1057D000770021D01CB54FEA370703B44FF0100013
:1057E0004FF010014FF000000FBCBDE810400BF16E
:1057F000010BBBF1010F08BF5FEA170722BF12F1CF
:10580000010211F101014FF0004143F1000300F0EA
:10581000004043EA00007047F9D35708DAE746EA48
:10582000064613F1400F4FEA16461FDD13F1200F15
:10583000DFBF16430A46002120335B42C8D0C3F1C4
:10584000200746EA064602FA07F74FEA164646EAF6
:105850000706C3F1200722FA03F201FA07F721FA3B
:1058600003F14FF0000342EA0702B1E746EA0206FD
:1058700046EA06464FEA164646EA0106BCBF46EA35
:105880000646360C4FF000034FF000024FF00001C7
:105890009EE72DE9C048934630B491E8380007C828
:1058A00031EA400C48BF34EA430C03D5FFF7F2FD60
:1058B000FFF78CFFF0BCBDE800882DE9C048934697
:1058C00030B491E8380007C810F0804F08BF13F0DB
:1058D000804F03D100F005F8FFF778FFF0BCBDE87A
:1058E000008820F07F4780EA030023F07F4C07EB1D
:1058F0000C03A3F57C5300F00040A3F1FE0392F0EB
:10590000000F00F0B38095F0000F00F077802DE9D4
:1059100001494FEA11404FEA144621EA004800FBD2
:1059200006FC24EA064708FB06F607FB08F800FB1E
:1059300007F718EB06484CEB164C4FEA124B18EBE6
:1059400007484FEA15464CEB174022EA0B4E0BFB7B
:1059500006FC25EA06470EFB06F607FB0EFE0BFBD0
:1059600007F71EEB064E4CEB164C4FF000061EEBF5
:10597000074E4CEB174B18EB0B0840F1000018EBEF
:105980000E0B58EB000840F100008F1A4FF0000199
:105990003CBFC943661B14BFB5EB040C00213CBFE0
:1059A000C943F61B4FEA17444EEA8E0E27EA044518
:1059B0004FEA1C4704FB07622CEA074C05FB07F77C
:1059C0000CFB05F604FB0CFC16EB074642EB1742FA
:1059D00016EB0C4642EB1C421BEB060658EB020290
:1059E000414146EA9E0601D5BDE80189B6195241FA
:1059F00041EB0101A3F10103BDE801894FEA144520
:105A00004FEA114724EA054621EA074C05FB07F453
:105A100006FB07F70CFB06F105FB0CFC11EB07413D
:105A200044EB17444FEA124711EB0C4144EB1C4482
:105A300022EA074C05FB07F206FB07F70CFB06F60C
:105A400005FB0CFC16EB074642EB174216EB0C4627
:105A500042EB1C456A1854F1000148BF7047B61963
:105A6000524141EB0101A3F10103704795F0000F92
:105A700037D04FEA11424FEA144721EA024624EA9E
:105A8000074C02FB07F106FB07F70CFB06F402FBD1
:105A90000CFC14EB074441EB17414FEA154714EB9C
:105AA0000C4441EB1C4125EA074C02FB07F506FBC1
:105AB00007F70CFB06F602FB0CFC16EB074645EB62
:105AC000174516EB0C4645EB1C42121951F100012B
:105AD00048BF7047B619524141EB0101A3F10103E0
